{
  "_format": "hh-sol-artifact-1",
  "contractName": "MfssiaOracleConsumer",
  "sourceName": "contracts/MfssiaOracleConsumer.sol",
  "abi": [
    {
      "inputs": [
        {
          "internalType": "address",
          "name": "router",
          "type": "address"
        }
      ],
      "stateMutability": "nonpayable",
      "type": "constructor"
    },
    {
      "inputs": [
        {
          "internalType": "address",
          "name": "target",
          "type": "address"
        }
      ],
      "name": "AddressEmptyCode",
      "type": "error"
    },
    {
      "inputs": [
        {
          "internalType": "address",
          "name": "implementation",
          "type": "address"
        }
      ],
      "name": "ERC1967InvalidImplementation",
      "type": "error"
    },
    {
      "inputs": [],
      "name": "ERC1967NonPayable",
      "type": "error"
    },
    {
      "inputs": [],
      "name": "EmptyArgs",
      "type": "error"
    },
    {
      "inputs": [],
      "name": "EmptySource",
      "type": "error"
    },
    {
      "inputs": [],
      "name": "FailedCall",
      "type": "error"
    },
    {
      "inputs": [],
      "name": "InvalidInitialization",
      "type": "error"
    },
    {
      "inputs": [],
      "name": "NoInlineSecrets",
      "type": "error"
    },
    {
      "inputs": [],
      "name": "NotInitializing",
      "type": "error"
    },
    {
      "inputs": [],
      "name": "OnlyRouterCanFulfill",
      "type": "error"
    },
    {
      "inputs": [
        {
          "internalType": "address",
          "name": "owner",
          "type": "address"
        }
      ],
      "name": "OwnableInvalidOwner",
      "type": "error"
    },
    {
      "inputs": [
        {
          "internalType": "address",
          "name": "account",
          "type": "address"
        }
      ],
      "name": "OwnableUnauthorizedAccount",
      "type": "error"
    },
    {
      "inputs": [],
      "name": "UUPSUnauthorizedCallContext",
      "type": "error"
    },
    {
      "inputs": [
        {
          "internalType": "bytes32",
          "name": "slot",
          "type": "bytes32"
        }
      ],
      "name": "UUPSUnsupportedProxiableUUID",
      "type": "error"
    },
    {
      "anonymous": false,
      "inputs": [
        {
          "indexed": false,
          "internalType": "uint64",
          "name": "version",
          "type": "uint64"
        }
      ],
      "name": "Initialized",
      "type": "event"
    },
    {
      "anonymous": false,
      "inputs": [
        {
          "indexed": true,
          "internalType": "address",
          "name": "previousOwner",
          "type": "address"
        },
        {
          "indexed": true,
          "internalType": "address",
          "name": "newOwner",
          "type": "address"
        }
      ],
      "name": "OwnershipTransferred",
      "type": "event"
    },
    {
      "anonymous": false,
      "inputs": [
        {
          "indexed": true,
          "internalType": "bytes32",
          "name": "id",
          "type": "bytes32"
        }
      ],
      "name": "RequestFulfilled",
      "type": "event"
    },
    {
      "anonymous": false,
      "inputs": [
        {
          "indexed": true,
          "internalType": "bytes32",
          "name": "id",
          "type": "bytes32"
        }
      ],
      "name": "RequestSent",
      "type": "event"
    },
    {
      "anonymous": false,
      "inputs": [
        {
          "indexed": true,
          "internalType": "address",
          "name": "implementation",
          "type": "address"
        }
      ],
      "name": "Upgraded",
      "type": "event"
    },
    {
      "anonymous": false,
      "inputs": [
        {
          "indexed": true,
          "internalType": "bytes32",
          "name": "requestId",
          "type": "bytes32"
        },
        {
          "indexed": true,
          "internalType": "bytes32",
          "name": "instanceKey",
          "type": "bytes32"
        },
        {
          "indexed": false,
          "internalType": "string",
          "name": "reason",
          "type": "string"
        }
      ],
      "name": "VerificationFailed",
      "type": "event"
    },
    {
      "anonymous": false,
      "inputs": [
        {
          "indexed": true,
          "internalType": "bytes32",
          "name": "requestId",
          "type": "bytes32"
        },
        {
          "indexed": true,
          "internalType": "bytes32",
          "name": "instanceKey",
          "type": "bytes32"
        },
        {
          "indexed": false,
          "internalType": "string",
          "name": "challengeSet",
          "type": "string"
        },
        {
          "indexed": true,
          "internalType": "address",
          "name": "requester",
          "type": "address"
        }
      ],
      "name": "VerificationRequested",
      "type": "event"
    },
    {
      "anonymous": false,
      "inputs": [
        {
          "indexed": true,
          "internalType": "bytes32",
          "name": "requestId",
          "type": "bytes32"
        },
        {
          "indexed": true,
          "internalType": "bytes32",
          "name": "instanceKey",
          "type": "bytes32"
        },
        {
          "indexed": false,
          "internalType": "bytes",
          "name": "response",
          "type": "bytes"
        },
        {
          "indexed": false,
          "internalType": "bytes",
          "name": "err",
          "type": "bytes"
        }
      ],
      "name": "VerificationResponseReceived",
      "type": "event"
    },
    {
      "inputs": [],
      "name": "UPGRADE_INTERFACE_VERSION",
      "outputs": [
        {
          "internalType": "string",
          "name": "",
          "type": "string"
        }
      ],
      "stateMutability": "view",
      "type": "function"
    },
    {
      "inputs": [],
      "name": "batchVerificationLogic",
      "outputs": [
        {
          "internalType": "string",
          "name": "",
          "type": "string"
        }
      ],
      "stateMutability": "view",
      "type": "function"
    },
    {
      "inputs": [
        {
          "internalType": "bytes32",
          "name": "requestId",
          "type": "bytes32"
        }
      ],
      "name": "clearPending",
      "outputs": [],
      "stateMutability": "nonpayable",
      "type": "function"
    },
    {
      "inputs": [],
      "name": "donId",
      "outputs": [
        {
          "internalType": "bytes32",
          "name": "",
          "type": "bytes32"
        }
      ],
      "stateMutability": "view",
      "type": "function"
    },
    {
      "inputs": [
        {
          "internalType": "bytes32",
          "name": "requestId",
          "type": "bytes32"
        },
        {
          "internalType": "bytes",
          "name": "response",
          "type": "bytes"
        },
        {
          "internalType": "bytes",
          "name": "err",
          "type": "bytes"
        }
      ],
      "name": "handleOracleFulfillment",
      "outputs": [],
      "stateMutability": "nonpayable",
      "type": "function"
    },
    {
      "inputs": [
        {
          "internalType": "bytes32",
          "name": "_donId",
          "type": "bytes32"
        },
        {
          "internalType": "string",
          "name": "_batchVerificationLogic",
          "type": "string"
        }
      ],
      "name": "initialize",
      "outputs": [],
      "stateMutability": "nonpayable",
      "type": "function"
    },
    {
      "inputs": [],
      "name": "owner",
      "outputs": [
        {
          "internalType": "address",
          "name": "",
          "type": "address"
        }
      ],
      "stateMutability": "view",
      "type": "function"
    },
    {
      "inputs": [
        {
          "internalType": "bytes32",
          "name": "",
          "type": "bytes32"
        }
      ],
      "name": "pendingVerifications",
      "outputs": [
        {
          "internalType": "bytes32",
          "name": "",
          "type": "bytes32"
        }
      ],
      "stateMutability": "view",
      "type": "function"
    },
    {
      "inputs": [],
      "name": "proxiableUUID",
      "outputs": [
        {
          "internalType": "bytes32",
          "name": "",
          "type": "bytes32"
        }
      ],
      "stateMutability": "view",
      "type": "function"
    },
    {
      "inputs": [],
      "name": "renounceOwnership",
      "outputs": [],
      "stateMutability": "nonpayable",
      "type": "function"
    },
    {
      "inputs": [
        {
          "internalType": "bytes32",
          "name": "instanceKey",
          "type": "bytes32"
        },
        {
          "internalType": "string",
          "name": "challengeSet",
          "type": "string"
        },
        {
          "internalType": "string[]",
          "name": "args",
          "type": "string[]"
        },
        {
          "internalType": "uint64",
          "name": "subscriptionId",
          "type": "uint64"
        },
        {
          "internalType": "uint32",
          "name": "gasLimit",
          "type": "uint32"
        }
      ],
      "name": "requestVerification",
      "outputs": [
        {
          "internalType": "bytes32",
          "name": "requestId",
          "type": "bytes32"
        }
      ],
      "stateMutability": "nonpayable",
      "type": "function"
    },
    {
      "inputs": [
        {
          "internalType": "address",
          "name": "newOwner",
          "type": "address"
        }
      ],
      "name": "transferOwnership",
      "outputs": [],
      "stateMutability": "nonpayable",
      "type": "function"
    },
    {
      "inputs": [
        {
          "internalType": "address",
          "name": "newImplementation",
          "type": "address"
        },
        {
          "internalType": "bytes",
          "name": "data",
          "type": "bytes"
        }
      ],
      "name": "upgradeToAndCall",
      "outputs": [],
      "stateMutability": "payable",
      "type": "function"
    }
  ],
  "bytecode": "0x60c03461008757601f61207238819003918201601f19168301916001600160401b0383118484101761008c5780849260209460405283398101031261008757516001600160a01b03811690819003610087573060805260a052604051611fcf90816100a3823960805181818161046b015261059b015260a05181818161020701526112390152f35b600080fd5b634e487b7160e01b600052604160045260246000fdfe6080604052600436101561001257600080fd5b60003560e01c80630ca76175146100e757806322ab2d75146100e25780633d4f621c146100dd5780634f1ef286146100d857806352d1902d146100d3578063715018a6146100ce57806371b88527146100c957806386154779146100c45780638da5cb5b146100bf5780638dbe7b9d146100ba578063ad3cb1cc146100b5578063eddbe44e146100b05763f2fde38b146100ab57600080fd5b610999565b610901565b610892565b610874565b61083e565b6107c3565b61078f565b6105e1565b610588565b61042c565b6103ea565b6102a5565b6101b8565b634e487b7160e01b600052604160045260246000fd5b604081019081106001600160401b0382111761011d57604052565b6100ec565b90601f801991011681019081106001600160401b0382111761011d57604052565b6001600160401b03811161011d57601f01601f191660200190565b92919261016a82610143565b916101786040519384610122565b829481845281830111610195578281602093846000960137010152565b600080fd5b9080601f83011215610195578160206101b59335910161015e565b90565b34610195576060366003190112610195576004356001600160401b03602435818111610195576101ec90369060040161019a565b906044359081116101955761020590369060040161019a565b7f00000000000000000000000000000000000000000000000000000000000000006001600160a01b031633036102665761023f9183610d55565b7f85e1543bf2f84fe80c6badbce3648c8539ad1df4d2b3d822938ca0538be727e6600080a2005b60405163c6829f8360e01b8152600490fd5b9181601f84011215610195578235916001600160401b038311610195576020838186019501011161019557565b34610195576040366003190112610195576001600160401b03602435818111610195576102d6903690600401610278565b600080516020611f7a833981519152549260ff8460401c16159316801590816103e2575b60011490816103d8575b1590816103cf575b506103bd57600080516020611f7a833981519152805467ffffffffffffffff191660011790556103449183610393575b600435610a38565b61034a57005b600080516020611f7a833981519152805460ff60401b19169055604051600181527fc7f505b2f371ae2175ee4913f4499e1f2633a7b5936321eed1cdaeb6115181d290602090a1005b600080516020611f7a833981519152805460ff60401b19166801000000000000000017905561033c565b60405163f92ee8a960e01b8152600490fd5b9050153861030c565b303b159150610304565b8491506102fa565b346101955760203660031901126101955760043560005260026020526020604060002054604051908152f35b600435906001600160a01b038216820361019557565b604036600319011261019557610440610416565b6024356001600160401b0381116101955761045f90369060040161019a565b6001600160a01b0391907f0000000000000000000000000000000000000000000000000000000000000000831630811490811561056c575b5061055a5760206004936104a9610e38565b6040516352d1902d60e01b8152948591829086165afa60009381610529575b506104ee57604051634c9c8ce360e01b81526001600160a01b0383166004820152602490fd5b90600080516020611f5a83398151915283036105105761050e92506112ef565b005b604051632a87526960e21b815260048101849052602490fd5b61054c91945060203d602011610553575b6105448183610122565b810190610e1d565b92386104c8565b503d61053a565b60405163703e46dd60e11b8152600490fd5b905083600080516020611f5a8339815191525416141538610497565b34610195576000366003190112610195577f00000000000000000000000000000000000000000000000000000000000000006001600160a01b0316300361055a576020604051600080516020611f5a8339815191528152f35b346101955760008060031936011261064c576105fb610e38565b600080516020611f3a83398151915280546001600160a01b0319811690915581906001600160a01b03167f8be0079c531659141344cd1fd0a4f28419497f9722a3daafe3b4186f6b6457e08280a380f35b80fd5b90600182811c9216801561067f575b602083101461066957565b634e487b7160e01b600052602260045260246000fd5b91607f169161065e565b6040519060008260019160015461069f8161064f565b808452936020916001811690811561072b57506001146106ca575b50506106c892500383610122565b565b91509260016000527fb10e2d527612073b26eecdfd717e6a320cf44b4afac2b0732d9fcbe2b7fa0cf6936000925b82841061071357506106c894505050810160200138806106ba565b855488850183015294850194879450928101926106f8565b915050602092506106c894915060ff191682840152151560051b82010138806106ba565b919082519283825260005b84811061077b575050826000602080949584010152601f8019910116010190565b60208183018101518483018201520161075a565b34610195576000366003190112610195576107bf6107ab610689565b60405191829160208352602083019061074f565b0390f35b34610195576020366003190112610195576004356107df610e38565b6000908082526002602052604082205415610804578152600260205280604081205580f35b60405162461bcd60e51b8152602060048201526012602482015271139bc81c195b991a5b99c81c995c5d595cdd60721b6044820152606490fd5b3461019557600036600319011261019557600080516020611f3a833981519152546040516001600160a01b039091168152602090f35b34610195576000366003190112610195576020600054604051908152f35b34610195576000366003190112610195576107bf6040516108b281610102565b60058152640352e302e360dc1b602082015260405191829160208352602083019061074f565b606435906001600160401b038216820361019557565b6084359063ffffffff8216820361019557565b346101955760a0366003190112610195576001600160401b0360243581811161019557610932903690600401610278565b604435908382116101955736602383011215610195578160040135938411610195573660248560051b84010111610195576107bf93610989936109736108d8565b92602461097e6108ee565b950191600435610b40565b6040519081529081906020820190565b346101955760203660031901126101955761050e6109b5610416565b6109bd610e38565b610ce1565b90601f82116109cf575050565b60019160009060016000527fb10e2d527612073b26eecdfd717e6a320cf44b4afac2b0732d9fcbe2b7fa0cf6906020601f850160051c83019410610a2e575b601f0160051c01915b828110610a245750505050565b8181558301610a17565b9092508290610a0e565b92919092610a446112c0565b610a4c6112c0565b610a5533610ce1565b610a5d6112c0565b6000556001600160401b03811161011d57600190610a8481610a7f845461064f565b6109c2565b6000601f8211600114610ac5578190610ab6939495600092610aba575b50508160011b916000199060031b1c19161790565b9055565b013590503880610aa1565b6001600052601f198216947fb10e2d527612073b26eecdfd717e6a320cf44b4afac2b0732d9fcbe2b7fa0cf691805b878110610b2a57508385969710610b10575b505050811b019055565b0135600019600384901b60f8161c19169055388080610b06565b8282013584559285019260209182019101610af4565b939094929192610b4e610e38565b6040519660e088018881106001600160401b0382111761011d57610c15987f9056ca049dcfe83070a5f874ff8a6362e3ba41faa91e16b1550f0b85566e501f95610bee95610be49360405260008352600060208401526000604084015260608084015260606080840152606060a0840152606060c0840152610bd7610bd1610689565b84610ea0565b80610c1b575b5050611013565b91600054926111e1565b94859284610c06856000526002602052604060002090565b55604051918291339783610cb9565b0390a490565b610c3091610c2a913691610c37565b82610ec9565b3880610bdd565b929190926001600160401b039182851161011d578460051b6020936020604051610c6382850182610122565b8098815201918401938385116101955780925b858410610c865750505050505050565b833583811161019557820185601f82011215610195578791610cae878385809535910161015e565b815201930192610c76565b90918060409360208452816020850152848401376000828201840152601f01601f1916010190565b6001600160a01b03908116908115610d3c57600080516020611f3a83398151915280546001600160a01b031981168417909155167f8be0079c531659141344cd1fd0a4f28419497f9722a3daafe3b4186f6b6457e0600080a3565b604051631e4fbdf760e01b815260006004820152602490fd5b90610da492826000526002602052604091837f9e3d703b91b9a894e61d3b5771e5a9059bb7f949b20d32c6cba6736a1bc0d12c8460002054968793610db287519283928984528984019061074f565b82810360208401528761074f565b0390a38315610e175751610dc557505050565b6060817527b930b1b6329032bc32b1baba34b7b71032b93937b960511b7f5397b49763279f970502a36afe5669f2a3a45fa26f0edfd522318825ebbe2d259351916020835260166020840152820152a3565b50505050565b90816020910312610195575190565b6040513d6000823e3d90fd5b600080516020611f3a833981519152546001600160a01b03163303610e5957565b60405163118cdaa760e01b8152336004820152602490fd5b634e487b7160e01b600052602160045260246000fd5b60031115610e9157565b610e71565b60011115610e9157565b815115610eb7576000808252604082015260600152565b6040516322ce3edd60e01b8152600490fd5b815115610ed65760a00152565b60405163fe936cb760e01b8152600490fd5b60405190610ef582610102565b600c82526b31b7b232a637b1b0ba34b7b760a11b6020830152565b60405190610f1d82610102565b60088252676c616e677561676560c01b6020830152565b60405190610f4182610102565b6006825265736f7572636560d01b6020830152565b60405190610f6382610102565b60048252636172677360e01b6020830152565b8051821015610f8a5760209160051b010190565b634e487b7160e01b600052603260045260246000fd5b60405190610fad82610102565b600f82526e39b2b1b932ba39a637b1b0ba34b7b760891b6020830152565b60405190610fd882610102565b60078252667365637265747360c81b6020830152565b60405190610ffb82610102565b600982526862797465734172677360b81b6020830152565b61101b6113b0565b9061102d611027610ee8565b83611400565b61104a815161103b81610e87565b61104481610e87565b836114bf565b611055611027610f10565b61106f604082015161106681610e96565b61104481610e96565b61107a611027610f34565b611088606082015183611400565b60a08101805151611188575b506080810190815151611108575b60c09150018051516110b5575b50515190565b916110c1611027610fee565b6110ca82611591565b60005b835180518210156110f557906110ef6110e882600194610f76565b51856116b9565b016110cd565b505091506111028161162c565b386110af565b60208101805161111781610e87565b61112081610e87565b156111765760c0926111596111719261114061113a610fa0565b88611400565b5161114a81610e87565b61115381610e87565b866114bf565b61116a611164610fcb565b86611400565b51846116b9565b6110a2565b60405163a80d31f760e01b8152600490fd5b9261119a611194610f56565b84611400565b6111a383611591565b60005b845180518210156111ce57906111c86111c182600194610f76565b5186611400565b016111a6565b505092506111db8261162c565b38611094565b92906020926001600160401b039263ffffffff611220604051978896879663230e93b160e11b885216600487015260a0602487015260a486019061074f565b60016044860152921660648401526084830152038160007f00000000000000000000000000000000000000000000000000000000000000006001600160a01b03165af19081156112bb5760009161129c575b50807f1131472297a800fee664d1d89cfa8f7676ff07189ecc53f80bbb5f4969099db8600080a290565b6112b5915060203d602011610553576105448183610122565b38611272565b610e2c565b60ff600080516020611f7a8339815191525460401c16156112dd57565b604051631afcd79f60e31b8152600490fd5b90813b1561137557600080516020611f5a83398151915280546001600160a01b0319166001600160a01b0384169081179091557fbc7cd75a20ee27fd9adebab32041f755214dbc6bffa90cc0225b39da2e5c2d3b600080a280511561135a576113579161173d565b50565b50503461136357565b60405163b398979f60e01b8152600490fd5b604051634c9c8ce360e01b81526001600160a01b0383166004820152602490fd5b604051906113a382610102565b6000602083606081520152565b6040516113bc81610102565b6113c4611396565b80825260208201600081526113d7611396565b506101006020830152604051809252600082526101208201918210610195576000916040525290565b81516113579291906001600160401b03811690601782116114445761142f9150606060ff845192161790611be3565b505b519061143b611396565b50805191611e76565b5060ff8111611469576114639061145b83516119ea565b508251611e02565b50611431565b61ffff811161148857611463906114808351611985565b508251611d94565b63ffffffff81116114a957611463906114a18351611920565b508251611d24565b611463906114b783516118b0565b508251611cb1565b908151916114cb611396565b508251516001810190818111611560576020850151811015611524575b60c260206106c8965192830101538051821161151c575b50506040519160208301526020825261151782610102565b6116b9565b5238806114ff565b8160011b9482860460021483151715611560576020816115566106c89861154f60c295519184611783565b50826117d5565b50965050506114e8565b634e487b7160e01b600052601160045260246000fd5b906020820180921161156057565b9190820180921161156057565b80519061159c611396565b5081515160018101908181116115605760208401518110156115ea575b609f60208095519283010153805182116115e2575b505001805190600182018092116115605752565b5238806115ce565b8160011b938285046002148315171561156057602081611613829761154f609f95519184611783565b50955050506115b9565b601f1981019190821161156057565b805190611637611396565b508151516001810190818111611560576020840151811015611686575b60ff602080955192830101538051821161167e575b50500180516000198101919082116115605752565b523880611669565b8160011b9382850460021483151715611560576020816116af829761154f60ff95519184611783565b5095505050611654565b81516113579291906001600160401b03811690601782116116e85761142f9150604060ff845192161790611be3565b5060ff81116116ff576114639061145b8351611b7e565b61ffff811161171657611463906114808351611b19565b63ffffffff811161172f57611463906114a18351611ab4565b611463906114b78351611a4f565b6000806101b593602081519101845af43d1561177b573d9161175e83610143565b9261176c6040519485610122565b83523d6000602085013e611c4e565b606091611c4e565b9061178c611396565b50601f8116806117bb575b50806020830152604051908183526000825281016020019081106101955760405290565b602003602081116115605781018091116115605738611797565b906117de611396565b508051906117ea611396565b506117f88151831115611e6f565b825151916118068184611584565b60209260208601518211611883575b60209186518381519782010196821161187b575b505001915b808210156118535750600019906020036101000a019081199051169082511617905290565b90919261186f6118696118759286518152611576565b94611576565b9261161d565b9061182e565b523880611829565b61189561188f8361189a565b87611f22565b611815565b908160011b918083046002149015171561156057565b6118b8611396565b5080515160018101908181116115605760208301518110156118f1575b607b602084519283010153805182116118ed57505090565b5290565b8160011b828104600214831517156115605761191a9061191385519186611783565b50846117d5565b506118d5565b611928611396565b50805151600181019081811161156057602083015181101561195d575b607a602084519283010153805182116118ed57505090565b8160011b828104600214831517156115605761197f9061191385519186611783565b50611945565b61198d611396565b5080515160018101908181116115605760208301518110156119c2575b6079602084519283010153805182116118ed57505090565b8160011b82810460021483151715611560576119e49061191385519186611783565b506119aa565b6119f2611396565b508051516001810190818111611560576020830151811015611a27575b6078602084519283010153805182116118ed57505090565b8160011b8281046002148315171561156057611a499061191385519186611783565b50611a0f565b611a57611396565b508051516001810190818111611560576020830151811015611a8c575b605b602084519283010153805182116118ed57505090565b8160011b8281046002148315171561156057611aae9061191385519186611783565b50611a74565b611abc611396565b508051516001810190818111611560576020830151811015611af1575b605a602084519283010153805182116118ed57505090565b8160011b8281046002148315171561156057611b139061191385519186611783565b50611ad9565b611b21611396565b508051516001810190818111611560576020830151811015611b56575b6059602084519283010153805182116118ed57505090565b8160011b8281046002148315171561156057611b789061191385519186611783565b50611b3e565b611b86611396565b508051516001810190818111611560576020830151811015611bbb575b6058602084519283010153805182116118ed57505090565b8160011b8281046002148315171561156057611bdd9061191385519186611783565b50611ba3565b90611bec611396565b508151516001810191828211611560576020840151821015611c1f575b602084519283010153805182116118ed57505090565b8260011b8381046002148415171561156057611c4890611c4186519187611783565b50856117d5565b50611c09565b90611c755750805115611c6357602081519101fd5b60405163d6bda27560e01b8152600490fd5b81511580611ca8575b611c86575090565b604051639996b31560e01b81526001600160a01b039091166004820152602490fd5b50803b15611c7e565b90611cba611396565b508151518060080191826008116115605760208401518311611cfc575b6008845192830101906001600160401b0319825116179052805182116118ed57505090565b8260011b8381046002148415171561156057611d1e90611c4186519187611783565b50611cd7565b90611d2d611396565b508151518060040191826004116115605760208401518311611d6c575b60048451928301019063ffffffff19825116179052805182116118ed57505090565b8260011b8381046002148415171561156057611d8e90611c4186519187611783565b50611d4a565b90611d9d611396565b508151518060020191826002116115605760208401518311611dda575b60028451928301019061ffff19825116179052805182116118ed57505090565b8260011b8381046002148415171561156057611dfc90611c4186519187611783565b50611dba565b90611e0b611396565b508151518060010191826001116115605760208401518311611e47575b60018451928301019060ff19825116179052805182116118ed57505090565b8260011b8381046002148415171561156057611e6990611c4186519187611783565b50611e28565b1561019557565b9190611e80611396565b50611e8e8151831115611e6f565b825151916020611e9e8285611584565b928193828701518111611f0b575b865183815197820101968211611f03575b505001915b80821015611ee75750600019906020036101000a019081199051169082511617905290565b90919261186f611869611efd9286518152611576565b90611ec2565b523880611ebd565b611f1d611f178261189a565b88611f22565b611eac565b9061135791611f3381519282611783565b506117d556fe9016d09d72d40fdae2fd8ceac6b6234c7706214fd39c1cd1e609a0528c199300360894a13ba1a3210667c828492db98dca3e2076cc3735a920a3ca505d382bbcf0c57e16840df040f15088dc2f81fe391c3923bec73e23a9662efc9c229c6a00a26469706673582212201cdd5dd9a9c67b88bc7b6f6bb3ae7fa24295dc6eb9b3922dc48c19b47dbda7ba64736f6c63430008160033",
  "linkReferences": {},
  "deployedLinkReferences": {}
}