{
  "_format": "hh-sol-artifact-1",
  "contractName": "MfssiaOracleConsumer",
  "sourceName": "contracts/MfssiaOracleConsumer.sol",
  "abi": [
    {
      "inputs": [
        {
          "internalType": "address",
          "name": "router",
          "type": "address"
        }
      ],
      "stateMutability": "nonpayable",
      "type": "constructor"
    },
    {
      "inputs": [
        {
          "internalType": "address",
          "name": "target",
          "type": "address"
        }
      ],
      "name": "AddressEmptyCode",
      "type": "error"
    },
    {
      "inputs": [
        {
          "internalType": "address",
          "name": "implementation",
          "type": "address"
        }
      ],
      "name": "ERC1967InvalidImplementation",
      "type": "error"
    },
    {
      "inputs": [],
      "name": "ERC1967NonPayable",
      "type": "error"
    },
    {
      "inputs": [],
      "name": "EmptyArgs",
      "type": "error"
    },
    {
      "inputs": [],
      "name": "EmptySource",
      "type": "error"
    },
    {
      "inputs": [],
      "name": "FailedCall",
      "type": "error"
    },
    {
      "inputs": [],
      "name": "InvalidInitialization",
      "type": "error"
    },
    {
      "inputs": [],
      "name": "NoInlineSecrets",
      "type": "error"
    },
    {
      "inputs": [],
      "name": "NotInitializing",
      "type": "error"
    },
    {
      "inputs": [],
      "name": "OnlyRouterCanFulfill",
      "type": "error"
    },
    {
      "inputs": [
        {
          "internalType": "address",
          "name": "owner",
          "type": "address"
        }
      ],
      "name": "OwnableInvalidOwner",
      "type": "error"
    },
    {
      "inputs": [
        {
          "internalType": "address",
          "name": "account",
          "type": "address"
        }
      ],
      "name": "OwnableUnauthorizedAccount",
      "type": "error"
    },
    {
      "inputs": [],
      "name": "UUPSUnauthorizedCallContext",
      "type": "error"
    },
    {
      "inputs": [
        {
          "internalType": "bytes32",
          "name": "slot",
          "type": "bytes32"
        }
      ],
      "name": "UUPSUnsupportedProxiableUUID",
      "type": "error"
    },
    {
      "anonymous": false,
      "inputs": [
        {
          "indexed": false,
          "internalType": "uint64",
          "name": "version",
          "type": "uint64"
        }
      ],
      "name": "Initialized",
      "type": "event"
    },
    {
      "anonymous": false,
      "inputs": [
        {
          "indexed": true,
          "internalType": "address",
          "name": "previousOwner",
          "type": "address"
        },
        {
          "indexed": true,
          "internalType": "address",
          "name": "newOwner",
          "type": "address"
        }
      ],
      "name": "OwnershipTransferred",
      "type": "event"
    },
    {
      "anonymous": false,
      "inputs": [
        {
          "indexed": true,
          "internalType": "bytes32",
          "name": "id",
          "type": "bytes32"
        }
      ],
      "name": "RequestFulfilled",
      "type": "event"
    },
    {
      "anonymous": false,
      "inputs": [
        {
          "indexed": true,
          "internalType": "bytes32",
          "name": "id",
          "type": "bytes32"
        }
      ],
      "name": "RequestSent",
      "type": "event"
    },
    {
      "anonymous": false,
      "inputs": [
        {
          "indexed": true,
          "internalType": "address",
          "name": "implementation",
          "type": "address"
        }
      ],
      "name": "Upgraded",
      "type": "event"
    },
    {
      "anonymous": false,
      "inputs": [
        {
          "indexed": true,
          "internalType": "bytes32",
          "name": "requestId",
          "type": "bytes32"
        },
        {
          "indexed": true,
          "internalType": "bytes32",
          "name": "instanceKey",
          "type": "bytes32"
        },
        {
          "indexed": false,
          "internalType": "string",
          "name": "reason",
          "type": "string"
        }
      ],
      "name": "VerificationFailed",
      "type": "event"
    },
    {
      "anonymous": false,
      "inputs": [
        {
          "indexed": true,
          "internalType": "bytes32",
          "name": "requestId",
          "type": "bytes32"
        },
        {
          "indexed": true,
          "internalType": "bytes32",
          "name": "instanceKey",
          "type": "bytes32"
        },
        {
          "indexed": false,
          "internalType": "string",
          "name": "challengeSet",
          "type": "string"
        },
        {
          "indexed": true,
          "internalType": "address",
          "name": "requester",
          "type": "address"
        }
      ],
      "name": "VerificationRequested",
      "type": "event"
    },
    {
      "anonymous": false,
      "inputs": [
        {
          "indexed": true,
          "internalType": "bytes32",
          "name": "requestId",
          "type": "bytes32"
        },
        {
          "indexed": true,
          "internalType": "bytes32",
          "name": "instanceKey",
          "type": "bytes32"
        },
        {
          "indexed": false,
          "internalType": "bytes",
          "name": "response",
          "type": "bytes"
        },
        {
          "indexed": false,
          "internalType": "bytes",
          "name": "err",
          "type": "bytes"
        }
      ],
      "name": "VerificationResponseReceived",
      "type": "event"
    },
    {
      "inputs": [],
      "name": "UPGRADE_INTERFACE_VERSION",
      "outputs": [
        {
          "internalType": "string",
          "name": "",
          "type": "string"
        }
      ],
      "stateMutability": "view",
      "type": "function"
    },
    {
      "inputs": [],
      "name": "batchVerificationLogic",
      "outputs": [
        {
          "internalType": "string",
          "name": "",
          "type": "string"
        }
      ],
      "stateMutability": "view",
      "type": "function"
    },
    {
      "inputs": [
        {
          "internalType": "bytes32",
          "name": "requestId",
          "type": "bytes32"
        }
      ],
      "name": "clearPending",
      "outputs": [],
      "stateMutability": "nonpayable",
      "type": "function"
    },
    {
      "inputs": [],
      "name": "donId",
      "outputs": [
        {
          "internalType": "bytes32",
          "name": "",
          "type": "bytes32"
        }
      ],
      "stateMutability": "view",
      "type": "function"
    },
    {
      "inputs": [
        {
          "internalType": "bytes32",
          "name": "requestId",
          "type": "bytes32"
        },
        {
          "internalType": "bytes",
          "name": "response",
          "type": "bytes"
        },
        {
          "internalType": "bytes",
          "name": "err",
          "type": "bytes"
        }
      ],
      "name": "handleOracleFulfillment",
      "outputs": [],
      "stateMutability": "nonpayable",
      "type": "function"
    },
    {
      "inputs": [
        {
          "internalType": "bytes32",
          "name": "_donId",
          "type": "bytes32"
        },
        {
          "internalType": "string",
          "name": "_batchVerificationLogic",
          "type": "string"
        }
      ],
      "name": "initialize",
      "outputs": [],
      "stateMutability": "nonpayable",
      "type": "function"
    },
    {
      "inputs": [],
      "name": "owner",
      "outputs": [
        {
          "internalType": "address",
          "name": "",
          "type": "address"
        }
      ],
      "stateMutability": "view",
      "type": "function"
    },
    {
      "inputs": [
        {
          "internalType": "bytes32",
          "name": "",
          "type": "bytes32"
        }
      ],
      "name": "pendingVerifications",
      "outputs": [
        {
          "internalType": "bytes32",
          "name": "",
          "type": "bytes32"
        }
      ],
      "stateMutability": "view",
      "type": "function"
    },
    {
      "inputs": [],
      "name": "proxiableUUID",
      "outputs": [
        {
          "internalType": "bytes32",
          "name": "",
          "type": "bytes32"
        }
      ],
      "stateMutability": "view",
      "type": "function"
    },
    {
      "inputs": [],
      "name": "renounceOwnership",
      "outputs": [],
      "stateMutability": "nonpayable",
      "type": "function"
    },
    {
      "inputs": [
        {
          "internalType": "bytes32",
          "name": "instanceKey",
          "type": "bytes32"
        },
        {
          "internalType": "string",
          "name": "challengeSet",
          "type": "string"
        },
        {
          "internalType": "string[]",
          "name": "args",
          "type": "string[]"
        },
        {
          "internalType": "uint64",
          "name": "subscriptionId",
          "type": "uint64"
        },
        {
          "internalType": "uint32",
          "name": "gasLimit",
          "type": "uint32"
        }
      ],
      "name": "requestVerification",
      "outputs": [
        {
          "internalType": "bytes32",
          "name": "requestId",
          "type": "bytes32"
        }
      ],
      "stateMutability": "nonpayable",
      "type": "function"
    },
    {
      "inputs": [
        {
          "internalType": "address",
          "name": "newOwner",
          "type": "address"
        }
      ],
      "name": "transferOwnership",
      "outputs": [],
      "stateMutability": "nonpayable",
      "type": "function"
    },
    {
      "inputs": [
        {
          "internalType": "address",
          "name": "newImplementation",
          "type": "address"
        },
        {
          "internalType": "bytes",
          "name": "data",
          "type": "bytes"
        }
      ],
      "name": "upgradeToAndCall",
      "outputs": [],
      "stateMutability": "payable",
      "type": "function"
    }
  ],
  "bytecode": "0x60c03461008757601f61206838819003918201601f19168301916001600160401b0383118484101761008c5780849260209460405283398101031261008757516001600160a01b03811690819003610087573060805260a052604051611fc590816100a3823960805181818161046b015261059b015260a051818181610207015261122f0152f35b600080fd5b634e487b7160e01b600052604160045260246000fdfe6080604052600436101561001257600080fd5b60003560e01c80630ca76175146100e757806322ab2d75146100e25780633d4f621c146100dd5780634f1ef286146100d857806352d1902d146100d3578063715018a6146100ce57806371b88527146100c957806386154779146100c45780638da5cb5b146100bf5780638dbe7b9d146100ba578063ad3cb1cc146100b5578063eddbe44e146100b05763f2fde38b146100ab57600080fd5b610999565b610901565b610892565b610874565b61083e565b6107c3565b61078f565b6105e1565b610588565b61042c565b6103ea565b6102a5565b6101b8565b634e487b7160e01b600052604160045260246000fd5b604081019081106001600160401b0382111761011d57604052565b6100ec565b90601f801991011681019081106001600160401b0382111761011d57604052565b6001600160401b03811161011d57601f01601f191660200190565b92919261016a82610143565b916101786040519384610122565b829481845281830111610195578281602093846000960137010152565b600080fd5b9080601f83011215610195578160206101b59335910161015e565b90565b34610195576060366003190112610195576004356001600160401b03602435818111610195576101ec90369060040161019a565b906044359081116101955761020590369060040161019a565b7f00000000000000000000000000000000000000000000000000000000000000006001600160a01b031633036102665761023f9183610d37565b7f85e1543bf2f84fe80c6badbce3648c8539ad1df4d2b3d822938ca0538be727e6600080a2005b60405163c6829f8360e01b8152600490fd5b9181601f84011215610195578235916001600160401b038311610195576020838186019501011161019557565b34610195576040366003190112610195576001600160401b03602435818111610195576102d6903690600401610278565b600080516020611f70833981519152549260ff8460401c16159316801590816103e2575b60011490816103d8575b1590816103cf575b506103bd57600080516020611f70833981519152805467ffffffffffffffff191660011790556103449183610393575b600435610a38565b61034a57005b600080516020611f70833981519152805460ff60401b19169055604051600181527fc7f505b2f371ae2175ee4913f4499e1f2633a7b5936321eed1cdaeb6115181d290602090a1005b600080516020611f70833981519152805460ff60401b19166801000000000000000017905561033c565b60405163f92ee8a960e01b8152600490fd5b9050153861030c565b303b159150610304565b8491506102fa565b346101955760203660031901126101955760043560005260026020526020604060002054604051908152f35b600435906001600160a01b038216820361019557565b604036600319011261019557610440610416565b6024356001600160401b0381116101955761045f90369060040161019a565b6001600160a01b0391907f0000000000000000000000000000000000000000000000000000000000000000831630811490811561056c575b5061055a5760206004936104a9610e2e565b6040516352d1902d60e01b8152948591829086165afa60009381610529575b506104ee57604051634c9c8ce360e01b81526001600160a01b0383166004820152602490fd5b90600080516020611f5083398151915283036105105761050e92506112e5565b005b604051632a87526960e21b815260048101849052602490fd5b61054c91945060203d602011610553575b6105448183610122565b810190610e13565b92386104c8565b503d61053a565b60405163703e46dd60e11b8152600490fd5b905083600080516020611f508339815191525416141538610497565b34610195576000366003190112610195577f00000000000000000000000000000000000000000000000000000000000000006001600160a01b0316300361055a576020604051600080516020611f508339815191528152f35b346101955760008060031936011261064c576105fb610e2e565b600080516020611f3083398151915280546001600160a01b0319811690915581906001600160a01b03167f8be0079c531659141344cd1fd0a4f28419497f9722a3daafe3b4186f6b6457e08280a380f35b80fd5b90600182811c9216801561067f575b602083101461066957565b634e487b7160e01b600052602260045260246000fd5b91607f169161065e565b6040519060008260019160015461069f8161064f565b808452936020916001811690811561072b57506001146106ca575b50506106c892500383610122565b565b91509260016000527fb10e2d527612073b26eecdfd717e6a320cf44b4afac2b0732d9fcbe2b7fa0cf6936000925b82841061071357506106c894505050810160200138806106ba565b855488850183015294850194879450928101926106f8565b915050602092506106c894915060ff191682840152151560051b82010138806106ba565b919082519283825260005b84811061077b575050826000602080949584010152601f8019910116010190565b60208183018101518483018201520161075a565b34610195576000366003190112610195576107bf6107ab610689565b60405191829160208352602083019061074f565b0390f35b34610195576020366003190112610195576004356107df610e2e565b6000908082526002602052604082205415610804578152600260205280604081205580f35b60405162461bcd60e51b8152602060048201526012602482015271139bc81c195b991a5b99c81c995c5d595cdd60721b6044820152606490fd5b3461019557600036600319011261019557600080516020611f30833981519152546040516001600160a01b039091168152602090f35b34610195576000366003190112610195576020600054604051908152f35b34610195576000366003190112610195576107bf6040516108b281610102565b60058152640352e302e360dc1b602082015260405191829160208352602083019061074f565b606435906001600160401b038216820361019557565b6084359063ffffffff8216820361019557565b346101955760a0366003190112610195576001600160401b0360243581811161019557610932903690600401610278565b604435908382116101955736602383011215610195578160040135938411610195573660248560051b84010111610195576107bf93610989936109736108d8565b92602461097e6108ee565b950191600435610bd2565b6040519081529081906020820190565b346101955760203660031901126101955761050e6109b5610416565b6109bd610e2e565b610cc3565b90601f82116109cf575050565b60019160009060016000527fb10e2d527612073b26eecdfd717e6a320cf44b4afac2b0732d9fcbe2b7fa0cf6906020601f850160051c83019410610a2e575b601f0160051c01915b828110610a245750505050565b8181558301610a17565b9092508290610a0e565b60005591906001600160401b03811161011d57600190610a6181610a5c845461064f565b6109c2565b6000601f8211600114610aaa578190610a93939495600092610a9f575b50508160011b916000199060031b1c19161790565b90555b6106c833610dff565b013590503880610a7e565b6001600052601f198216947fb10e2d527612073b26eecdfd717e6a320cf44b4afac2b0732d9fcbe2b7fa0cf691805b878110610b1257508385969710610af8575b505050811b019055610a96565b0135600019600384901b60f8161c19169055388080610aeb565b8282013584559285019260209182019101610ad9565b929190926001600160401b039182851161011d578460051b6020936020604051610b5482850182610122565b8098815201918401938385116101955780925b858410610b775750505050505050565b833583811161019557820185601f82011215610195578791610b9f878385809535910161015e565b815201930192610b67565b90918060409360208452816020850152848401376000828201840152601f01601f1916010190565b9390949695969291926040519760e089018981106001600160401b0382111761011d57610ca2997f9056ca049dcfe83070a5f874ff8a6362e3ba41faa91e16b1550f0b85566e501f95610c7b95610c719360405260008352600060208401526000604084015260608084015260606080840152606060a0840152606060c0840152610c64610c5e610689565b84610e96565b80610ca7575b5050611009565b91600054926111d7565b95869284610c93856000526002602052604060002090565b55604051918291339783610baa565b0390a4565b610cbc91610cb6913691610b28565b82610ebf565b3880610c6a565b6001600160a01b03908116908115610d1e57600080516020611f3083398151915280546001600160a01b031981168417909155167f8be0079c531659141344cd1fd0a4f28419497f9722a3daafe3b4186f6b6457e0600080a3565b604051631e4fbdf760e01b815260006004820152602490fd5b90610d8692826000526002602052604091837f9e3d703b91b9a894e61d3b5771e5a9059bb7f949b20d32c6cba6736a1bc0d12c8460002054968793610d9487519283928984528984019061074f565b82810360208401528761074f565b0390a38315610df95751610da757505050565b6060817527b930b1b6329032bc32b1baba34b7b71032b93937b960511b7f5397b49763279f970502a36afe5669f2a3a45fa26f0edfd522318825ebbe2d259351916020835260166020840152820152a3565b50505050565b6106c890610e0b6112b6565b6109bd6112b6565b90816020910312610195575190565b6040513d6000823e3d90fd5b600080516020611f30833981519152546001600160a01b03163303610e4f57565b60405163118cdaa760e01b8152336004820152602490fd5b634e487b7160e01b600052602160045260246000fd5b60031115610e8757565b610e67565b60011115610e8757565b815115610ead576000808252604082015260600152565b6040516322ce3edd60e01b8152600490fd5b815115610ecc5760a00152565b60405163fe936cb760e01b8152600490fd5b60405190610eeb82610102565b600c82526b31b7b232a637b1b0ba34b7b760a11b6020830152565b60405190610f1382610102565b60088252676c616e677561676560c01b6020830152565b60405190610f3782610102565b6006825265736f7572636560d01b6020830152565b60405190610f5982610102565b60048252636172677360e01b6020830152565b8051821015610f805760209160051b010190565b634e487b7160e01b600052603260045260246000fd5b60405190610fa382610102565b600f82526e39b2b1b932ba39a637b1b0ba34b7b760891b6020830152565b60405190610fce82610102565b60078252667365637265747360c81b6020830152565b60405190610ff182610102565b600982526862797465734172677360b81b6020830152565b6110116113a6565b9061102361101d610ede565b836113f6565b611040815161103181610e7d565b61103a81610e7d565b836114b5565b61104b61101d610f06565b611065604082015161105c81610e8c565b61103a81610e8c565b61107061101d610f2a565b61107e6060820151836113f6565b60a0810180515161117e575b5060808101908151516110fe575b60c09150018051516110ab575b50515190565b916110b761101d610fe4565b6110c082611587565b60005b835180518210156110eb57906110e56110de82600194610f6c565b51856116af565b016110c3565b505091506110f881611622565b386110a5565b60208101805161110d81610e7d565b61111681610e7d565b1561116c5760c09261114f61116792611136611130610f96565b886113f6565b5161114081610e7d565b61114981610e7d565b866114b5565b61116061115a610fc1565b866113f6565b51846116af565b611098565b60405163a80d31f760e01b8152600490fd5b9261119061118a610f4c565b846113f6565b61119983611587565b60005b845180518210156111c457906111be6111b782600194610f6c565b51866113f6565b0161119c565b505092506111d182611622565b3861108a565b92906020926001600160401b039263ffffffff611216604051978896879663230e93b160e11b885216600487015260a0602487015260a486019061074f565b60016044860152921660648401526084830152038160007f00000000000000000000000000000000000000000000000000000000000000006001600160a01b03165af19081156112b157600091611292575b50807f1131472297a800fee664d1d89cfa8f7676ff07189ecc53f80bbb5f4969099db8600080a290565b6112ab915060203d602011610553576105448183610122565b38611268565b610e22565b60ff600080516020611f708339815191525460401c16156112d357565b604051631afcd79f60e31b8152600490fd5b90813b1561136b57600080516020611f5083398151915280546001600160a01b0319166001600160a01b0384169081179091557fbc7cd75a20ee27fd9adebab32041f755214dbc6bffa90cc0225b39da2e5c2d3b600080a28051156113505761134d91611733565b50565b50503461135957565b60405163b398979f60e01b8152600490fd5b604051634c9c8ce360e01b81526001600160a01b0383166004820152602490fd5b6040519061139982610102565b6000602083606081520152565b6040516113b281610102565b6113ba61138c565b80825260208201600081526113cd61138c565b506101006020830152604051809252600082526101208201918210610195576000916040525290565b815161134d9291906001600160401b038116906017821161143a576114259150606060ff845192161790611bd9565b505b519061143161138c565b50805191611e6c565b5060ff811161145f576114599061145183516119e0565b508251611df8565b50611427565b61ffff811161147e5761145990611476835161197b565b508251611d8a565b63ffffffff811161149f57611459906114978351611916565b508251611d1a565b611459906114ad83516118a6565b508251611ca7565b908151916114c161138c565b50825151600181019081811161155657602085015181101561151a575b60c260206106c89651928301015380518211611512575b50506040519160208301526020825261150d82610102565b6116af565b5238806114f5565b8160011b94828604600214831517156115565760208161154c6106c89861154560c295519184611779565b50826117cb565b50965050506114de565b634e487b7160e01b600052601160045260246000fd5b906020820180921161155657565b9190820180921161155657565b80519061159261138c565b5081515160018101908181116115565760208401518110156115e0575b609f60208095519283010153805182116115d8575b505001805190600182018092116115565752565b5238806115c4565b8160011b9382850460021483151715611556576020816116098297611545609f95519184611779565b50955050506115af565b601f1981019190821161155657565b80519061162d61138c565b50815151600181019081811161155657602084015181101561167c575b60ff6020809551928301015380518211611674575b50500180516000198101919082116115565752565b52388061165f565b8160011b9382850460021483151715611556576020816116a5829761154560ff95519184611779565b509550505061164a565b815161134d9291906001600160401b03811690601782116116de576114259150604060ff845192161790611bd9565b5060ff81116116f557611459906114518351611b74565b61ffff811161170c57611459906114768351611b0f565b63ffffffff811161172557611459906114978351611aaa565b611459906114ad8351611a45565b6000806101b593602081519101845af43d15611771573d9161175483610143565b926117626040519485610122565b83523d6000602085013e611c44565b606091611c44565b9061178261138c565b50601f8116806117b1575b50806020830152604051908183526000825281016020019081106101955760405290565b60200360208111611556578101809111611556573861178d565b906117d461138c565b508051906117e061138c565b506117ee8151831115611e65565b825151916117fc818461157a565b60209260208601518211611879575b602091865183815197820101968211611871575b505001915b808210156118495750600019906020036101000a019081199051169082511617905290565b90919261186561185f61186b928651815261156c565b9461156c565b92611613565b90611824565b52388061181f565b61188b61188583611890565b87611f18565b61180b565b908160011b918083046002149015171561155657565b6118ae61138c565b5080515160018101908181116115565760208301518110156118e7575b607b602084519283010153805182116118e357505090565b5290565b8160011b82810460021483151715611556576119109061190985519186611779565b50846117cb565b506118cb565b61191e61138c565b508051516001810190818111611556576020830151811015611953575b607a602084519283010153805182116118e357505090565b8160011b82810460021483151715611556576119759061190985519186611779565b5061193b565b61198361138c565b5080515160018101908181116115565760208301518110156119b8575b6079602084519283010153805182116118e357505090565b8160011b82810460021483151715611556576119da9061190985519186611779565b506119a0565b6119e861138c565b508051516001810190818111611556576020830151811015611a1d575b6078602084519283010153805182116118e357505090565b8160011b8281046002148315171561155657611a3f9061190985519186611779565b50611a05565b611a4d61138c565b508051516001810190818111611556576020830151811015611a82575b605b602084519283010153805182116118e357505090565b8160011b8281046002148315171561155657611aa49061190985519186611779565b50611a6a565b611ab261138c565b508051516001810190818111611556576020830151811015611ae7575b605a602084519283010153805182116118e357505090565b8160011b8281046002148315171561155657611b099061190985519186611779565b50611acf565b611b1761138c565b508051516001810190818111611556576020830151811015611b4c575b6059602084519283010153805182116118e357505090565b8160011b8281046002148315171561155657611b6e9061190985519186611779565b50611b34565b611b7c61138c565b508051516001810190818111611556576020830151811015611bb1575b6058602084519283010153805182116118e357505090565b8160011b8281046002148315171561155657611bd39061190985519186611779565b50611b99565b90611be261138c565b508151516001810191828211611556576020840151821015611c15575b602084519283010153805182116118e357505090565b8260011b8381046002148415171561155657611c3e90611c3786519187611779565b50856117cb565b50611bff565b90611c6b5750805115611c5957602081519101fd5b60405163d6bda27560e01b8152600490fd5b81511580611c9e575b611c7c575090565b604051639996b31560e01b81526001600160a01b039091166004820152602490fd5b50803b15611c74565b90611cb061138c565b508151518060080191826008116115565760208401518311611cf2575b6008845192830101906001600160401b0319825116179052805182116118e357505090565b8260011b8381046002148415171561155657611d1490611c3786519187611779565b50611ccd565b90611d2361138c565b508151518060040191826004116115565760208401518311611d62575b60048451928301019063ffffffff19825116179052805182116118e357505090565b8260011b8381046002148415171561155657611d8490611c3786519187611779565b50611d40565b90611d9361138c565b508151518060020191826002116115565760208401518311611dd0575b60028451928301019061ffff19825116179052805182116118e357505090565b8260011b8381046002148415171561155657611df290611c3786519187611779565b50611db0565b90611e0161138c565b508151518060010191826001116115565760208401518311611e3d575b60018451928301019060ff19825116179052805182116118e357505090565b8260011b8381046002148415171561155657611e5f90611c3786519187611779565b50611e1e565b1561019557565b9190611e7661138c565b50611e848151831115611e65565b825151916020611e94828561157a565b928193828701518111611f01575b865183815197820101968211611ef9575b505001915b80821015611edd5750600019906020036101000a019081199051169082511617905290565b90919261186561185f611ef3928651815261156c565b90611eb8565b523880611eb3565b611f13611f0d82611890565b88611f18565b611ea2565b9061134d91611f2981519282611779565b506117cb56fe9016d09d72d40fdae2fd8ceac6b6234c7706214fd39c1cd1e609a0528c199300360894a13ba1a3210667c828492db98dca3e2076cc3735a920a3ca505d382bbcf0c57e16840df040f15088dc2f81fe391c3923bec73e23a9662efc9c229c6a00a26469706673582212207bcaed9cfb7f136495aa075b202a1d63c4091f5444658f3f73a371152089a33d64736f6c63430008160033",
  "linkReferences": {},
  "deployedLinkReferences": {}
}